:020000040000FA
:10000000D8532020D500000041560000C93A000016
:1000100000000000000000000000000000000000E0
:10002000000000000000000000000000DD000000F3
:100030000000000000000000DF000000016400007C
:10004000E3000000713A0000B9640000E300000022
:10005000E3000000E3000000E3000000E300000014
:1000600000000000E3000000E300000000000000CA
:10007000000000002165000061650000E1640000EF
:100080001164000091640000E3000000E300000040
:10009000E3000000696400000000000000000000B0
:1000A000E3000000E300000000000000000000008A
:1000B000E300000000000000E3000000E300000097
:1000C0000348854600F030FD0048004791C9000014
:1000D000D853202003480047FEE7FEE7FEE7FEE78F
:1000E000FEE7FEE7C100000003460B439B0703D079
:1000F00009E008C9121F08C0042AFAD203E00B78ED
:100100000370401C491C521EF9D27047D2B201E064
:100110000270401C491EFBD270470022F6E710B562
:1001200013460A4604461946FFF7F0FF204610BD65
:10013000F8B502464A40D40F42004B0052085B0813
:100140009A4202D20246084611464A0023D0C30D05
:100150004A00DDB2120EAD1A202D35DA4902012611
:10016000490AF6058A19002C00D0524220214F1B63
:100170001146B9402A411018C20D9A4221D0002CD4
:1001800017D0012D08DCDA05801AD20F8019D207AA
:10019000DBB200F022FBF8BDDA05801A0123400033
:1001A0001B06C01880185A428018CA0F1043490015
:1001B00007E04908C2071143DA05801A8019400890
:1001C000801800F002FBF8BD61000122511A001BEB
:1001D000F7E70122D2075140AAE70122D207504097
:1001E000A6E7024670B54A40D30FDB0740002DD08A
:1001F0004A002AD0010E140E000212020919400A08
:10020000520A8418E50104465443000A120A2E04D7
:100210005043A4194219200CC543AA18120C0125F9
:10022000AD03521C521912047F39240400D0521C11
:10023000104301D44000491EC2B20C06C009201868
:10024000401C4008802A02D003E0002070BD400816
:100250004000002900DA0020184370BD70B5024646
:100260004A40D50F40004A00ED07400852080028D8
:1002700014D0002A12D0C40DD30D41020120C005B4
:100280005202490A520AE41A091812187D3491429E
:1002900001D3641C00E04900002C01DA002070BD8D
:1002A0000023914201D3891A0343400849000028E2
:1002B000F7D100290AD0914202D10121C90705E0F6
:1002C000914201D2012101E00121C943E005C0189A
:1002D000401900F07AFA70BDF0B50746084658405C
:1002E00087B0C00F049048000E46590040084908E6
:1002F000BC1A884105D2384631461E4617460B4681
:1003000002465800400810434CD0300D0390400581
:100310005900400D490D0590401A0290402872DAAC
:1003200018030121000B090508430190049800926D
:10033000002805D001995242002088410092019086
:10034000029840210A1A0199009800F01BFA05460C
:100350000C466B4607CB00F025FAC0197141039A91
:100360000E0D0023D71756401A467A40164344D044
:10037000049A002A2DD0029A012A039A15DC12054C
:10038000C01A914101263605001C7141D20F059E0D
:10039000D2070093019202962A46234600F0BAFA49
:1003A00007B0F0BD38463146FAE71605224A0F4637
:1003B000B218C01AB74101210905001C4F410018AD
:1003C0007F41114618187941E20F10436D196441BD
:1003D00013E0E2076D0815436408C2071443039A4B
:1003E00001261205C01A91413605001C7141CE0745
:1003F000400830434908C01851412A46234600F0BE
:100400007CFACDE7FFE7049801224000C117121AD9
:1004100000238B4104983146C417381AA141EEE7F6
:1004200030B40124E407634030BC55E730B4012404
:10043000E407614030BC4FE70000E0FFF0B51FB4B7
:1004400088B00B990998002448400999C00F4900C9
:1004500049080991C0070B990090490049080B9180
:1004600009990898A64608431CD00B990A98084396
:1004700018D0099801244000420D4800410D099808
:1004800024050003000B204309900B980003000B88
:1004900020430B9050181C4940180022019014462C
:1004A000104605E0002001460DB0F0BD032801DA3A
:1004B000034600E003239C46C11A0AAE0AE05F002F
:1004C00008ADED5B4F00F75B7D430027AA187C4128
:1004D000491C5B1E6145F2DD410004AB5A52210408
:1004E000120C0A43240C401C0828DFDB0198029000
:1004F0000099704601910090059B049A079906980F
:1005000000F008FAD0E700000DFCFFFF0122D2073F
:10051000002800DB101A002900DB511A814201D8A3
:1005200001207047002070470122D207002800DB1D
:10053000101A002900DB511A814201D201207047B4
:10054000002070470122D207002800DB101A002982
:1005500000DB511A814201D301207047002070470F
:100560000122D207002800DB101A002900DB511AF3
:10057000814201D901207047002070470122D20733
:10058000002800DB101A002900DB511A814201D13A
:10059000012070470020704710B5002904DB0C468D
:1005A0000121C9074042A141002B04DB1C46012365
:1005B000DB075242A341801A994101D3012010BDAB
:1005C000002010BD10B5002904DB0C460121C9072D
:1005D0004042A141002B04DB1C460123DB075242B1
:1005E000A341801A994101D2012010BD002010BD05
:1005F000C217C10F504010B54018CA0796230021FA
:1006000000F0EBF810BD10B500229623114600F063
:10061000E4F810BD0EB5C217C10F5040CA0740180C
:100620000021054B0293019200910A460B4600F00F
:1006300071F903B000BD000033040000C20F410097
:1006400040020123400ADB05D207090EC0187F29AA
:1006500001DA00207047962903DC9623591AC84016
:1006600001E096398840002AF4D0404270474100AA
:1006700040020122400AD205090E80187F2901DAC2
:1006800000207047962903DC9622511AC840704713
:10069000963988407047C20FD207400040080BD0FF
:1006A000C10D0723DB01C91840020905400A1143A7
:1006B000C208400711437047002001467047CB0F26
:1006C000DB07490010B5490802460A4307D00A0D66
:1006D00007240903E401090B121B002A01DC002096
:1006E00010BDC900440F0C43C100E018D2058018AA
:1006F00000F06BF810BD70B50446002903D000204F
:100700002022012310E0002801D00020C043C04671
:10071000C0460DE02546D5408D4205D30D46954097
:10072000641B1D46954040191546521E002DF1DCF4
:10073000214670BD70B5002504462E46002911D013
:10074000002C01DA01254442002901DA0126494240
:100750002046FFF7D0FFB54200D04042002D00D028
:10076000494270BD002C02DA0121C90702E0002CC9
:1007700000DD03490846C046C046214670BD000062
:10078000FFFFFF7F10B5202A04DB0146203A91408D
:10079000002010BD914020239C1A0346E3401943DA
:1007A000904010BD10B5202A06DBCB170846203A32
:1007B0001041C1170B4306E00B461341D0402024E3
:1007C000A21A91400843194610BD002904DA401CC2
:1007D000490001D140084000704770B40024050C66
:1007E00005D11024000402D1002921D01124050EC6
:1007F00001D100020834050F01D10001241D850F2D
:1008000001D18000A41C002801DB4000641C0029E9
:1008100008D020252E1B0D46F540A14000D0012117
:100820002943084301061B1B000ADB1D02D50020DB
:1008300070BC7047DB05181880180029F8DA401CD6
:100840004900F5D170BC400840007047420005D017
:100850004200120E52428A4201DB00207047C90555
:100860000818704770B5002801DC002070BD4100F9
:1008700040020126400AF605090E8019CA0701D177
:100880004000491E4D10002211463F353346CB40F3
:100890009B18D418844201D8001B1A464000491CFA
:1008A0001729F3DD5100814202D20021C94300E043
:1008B0000021E8058018FFF788FF70BD10B54100E2
:1008C0000DD04100090E962909DC7E290ADC07DBE0
:1008D000410205D0C00F7F21C007C905401810BDD7
:1008E000002010BD9622541A20210A1B0146914077
:1008F000E040FFF76AFFA04010BD10B5002B08DAFA
:100900000024401C614192185B411A4301D1400808
:10091000400010BDF0B51FB482B005460C0003D0F6
:10092000084614F075FB02E014F072FB203002461A
:10093000009021462846FFF725FF049B059A0446B0
:100940000F4618431143084314D0184610431BD0D8
:10095000009840210A1A1846059900F0FDF805464E
:100960000E46009A05990498FFF70CFF084305D03E
:10097000012004E02046394607B0F0BD0020C11731
:1009800005430E432C43374300990E986305401AE4
:100990007905E40A00220C43FD0A0A3002D5002042
:1009A0000146E9E70105101969410C9C0D9D0019EC
:1009B0006941FFF7A2FFDFE7F0B50C465C4085B068
:1009C000E40FE40703944C000026640859009446A1
:1009D000490802460296224321D062460A431ED0AD
:1009E0006200570D4A000E032303550D01240246F1
:1009F0002C492405781B1B0B360B40182343264338
:100A0000614600901C46501AB44103D30098401C24
:100A1000009002E0921800985B41002803DA002061
:100A2000014605B0F0BD00200121090507468646B4
:100A300011E064461D46141BB54106D36546521BA2
:100A4000B341744607430C43A646CD074008490806
:100A5000284392185B4105460D43EAD110461843DE
:100A600013D06046194650407140084306D0604696
:100A7000101AB34106D20122002306E0002201230E
:100A8000DB0702E00122D2435310009874460105AF
:100A9000381C6141029C039D00196941FFF72DFF3D
:100AA000BFE70000FD03000070B54B005B08034387
:100AB0000BD04B005C0D002633466542B341D41782
:100AC000AD1AA34102DB0020014670BD12053018AB
:100AD000514170BD10B54100C40F0A0E4002012102
:100AE000400AC905E40740187F2A07DA7D2A00DAA0
:100AF0007D22763A90400146002008E0962A09DCE3
:100B00001346763B0146994096239A1AD040FFF748
:100B10005CFE01E0963A9040002C00D0404210BDAF
:100B200000207047000000001CB5094800900948EB
:100B3000019005460126009C05E0E36807CC33439D
:100B40000C3C98471034AC42F7D3FFF7BDFA0000D5
:100B5000607801008078010010B5202A04DB084687
:100B6000203AD040002110BD0B46D340D040202475
:100B7000A21A91400843194610BD70B58C1805782B
:100B8000401C6B075B0F01D10378401C2A1106D172
:100B90000278401C03E006780E70401C491C5B1E66
:100BA000F9D12B0705D40023521E0DD40B70491C1C
:100BB000FAE70378401CCB1A921C03E01D780D70F5
:100BC000491C5B1C521EF9D5A142D8D3002070BD30
:100BD00010B5194919484860012082048A6048709C
:100BE0008870174A4A620B46203344058C6258705D
:100BF00098704A640B46403304038C6458709870B4
:100C00004A660B46603304028C66587098700B4637
:100C100080335A6044029C60587098700B46A03331
:100C20005A6084029C6058709870C0314A60C20259
:100C30008A604870887010BD441F202000000A4060
:100C400000200A4084B0009101460098039102A957
:100C50000870019203980A78825C0B480270039B2B
:100C60000A78D21852784270039B0A78D218927888
:100C70008270039A09788918C978C170006801994F
:100C8000086004B07047C0468006202083B0029000
:100C9000019100920298019908430099084305497F
:100CA000086003B07047C04602480068072108404A
:100CB0007047C0460013404082B001900199881EE1
:100CC000001F00BFFCD2009002B0704784B00390B8
:100CD000029101920398006800900098019988435E
:100CE000009000980299019A114008430399086006
:100CF00004B0704784B00390029101920398006899
:100D00000090009801998843009000980299019AF8
:100D1000114008430399086004B0704784B0039001
:100D2000029101920398006800900098019988430D
:100D3000009000980299019A1140084303990860B5
:100D400004B0704784B00390029101920398006848
:100D50000090009801998843009000980299019AA8
:100D6000114008430399086004B0704784B00390B1
:100D700002910192039800680090009801998843BD
:100D8000009000980299019A114008430399086065
:100D900004B0704784B003900291019203980068F8
:100DA0000090009801998843009000980299019A58
:100DB000114008430399086004B0704784B0039061
:100DC000029101920398006800900098019988436D
:100DD000009000980299019A114008430399086015
:100DE00004B0704770B587B0009314460D46009963
:100DF00002460E980D980C980B9B069205AA15704A
:100E00000494039102A90B8001AB18800498039C01
:100E100020430E9C240120430D9C20431B881B0172
:100E20001843098808430699127812018918092283
:100E30005202885007B070BD83B0009101460098FF
:100E4000029101A908700298097809014118092046
:100E50004202885802231843885003B07047F0B507
:100E600089B0049101460498089107A9059108707A
:100E7000069208980978069F7A68BB68BC89FD8944
:100E80003E697F690397029601950094FFF7AAFFD8
:100E9000059908980978069B1A785B7800F042F863
:100EA00009B0F0BD84B0009202460098039202AAF5
:100EB0001170019001980399127812018918024A61
:100EC000885004B07047C0460812000084B00092F9
:100ED00002460098039202AA1170019001980399AA
:100EE000127812018918024A885004B07047C0462F
:100EF0000412000085B000920A4600990192024651
:100F00000198049203AA107002A801800088049935
:100F1000127812018918024A885005B07047C046FD
:100F20000C12000010B586B001930346019805939A
:100F300004AB197003A90A7002AA107005981B78F7
:100F40009B00C018044BC018097812781143BF22C7
:100F5000FFF7BCFE06B010BD1011000082B001907A
:100F60000091009B0199094A88581843885002B0A3
:100F70007047C04682B001900091009B0199034ADE
:100F800088581843885002B07047C0464810000087
:100F900082B00190009100980199952252018850E9
:100FA00002B0704782B0019000910098019995229B
:100FB0005201885002B0704782B0019000910098B1
:100FC000019995225201885002B0704782B0019079
:100FD00000910098019995225201885002B0704703
:100FE00082B0019000910098019995225201885099
:100FF00002B0704782B0019000910098019995224B
:101000005201885002B0704782B001900091009860
:10101000019995225201885002B0704782B0019028
:1010200000910098019995225201885002B07047B2
:1010300081B00090009881005B4A885801235B06CC
:101040001843885001B0704782B001900091009B16
:101050000199034A88581843885002B07047C04627
:101060002810000082B00190009100980199024A76
:10107000885002B07047C046D012000081B0009086
:1010800000990120C2029A48885001B07047C046BA
:1010900082B001900091019802494058009908409F
:1010A00002B070473810000081B0009000988100B5
:1010B0003D4A0D48885001B07047C04610B584B015
:1010C000069C0390029101920093029801990843B3
:1010D0000099084306990843034908430399890086
:1010E000314A885004B010BD8100040081B00090E6
:1010F000009881002C4A8120885001B07047C0467A
:1011000010B584B0069C039002910192009302985E
:10111000019908430099084306990843812108432F
:1011200003998900204A885004B010BD81B0009016
:10113000009881001C4A0020885001B07047C046CA
:1011400082B00190009100981049084301998900EC
:10115000154A885002B0704710B584B0079C069CB1
:10116000039002910192009302980199084300991B
:10117000084306990843079908430449084303991B
:101180008900094A885004B010BDC04680000400A0
:1011900082B0019000910098802108430199890054
:1011A000014A885002B070470480424082B00190EA
:1011B000009101982721C90140580099084002B0C8
:1011C0007047000081B0009000998C4A8C4888508C
:1011D00001B0704782B001900091009B0199034AD1
:1011E00088581843885002B07047C04690130000DA
:1011F00082B00190009100980199204A885002B075
:101200007047C04682B001900091009801991B4A36
:10121000885002B07047C04682B00190009100989B
:101220000199164A885002B07047C04682B00190BA
:10123000009100980199114A885002B07047C04649
:1012400082B001900091009801990C4A885002B038
:101250007047C04682B00190009100980199074AFA
:10126000885002B07047C04682B00190009100984B
:101270000199024A885002B07047C046901200009F
:1012800082B00190009100980199024A885002B002
:101290007047C046B012000081B00090009909204C
:1012A0004202885801231B021843885001B070473E
:1012B00081B000900099084A88580123184388504B
:1012C00001B0704781B000900099034A8858042308
:1012D0001843885001B070472812000081B0009078
:1012E00000990120C2020248885001B07047C046F0
:1012F0000100002680B584B00390029101A802800D
:10130000694600200880FFE76846008801A909882F
:10131000884215DAFFE7039800F050F8002808D15A
:10132000FFE7039802996A461288895C00F00EF97B
:1013300000E005E0FFE70098401C69460880E3E70D
:101340006846008804B080BD80B582B001900198E5
:1013500000F0E6F8FFE7019800F020F8002801D13E
:10136000FFE7F8E7019800F0E5F802B080BD000063
:1013700081B0009000980249405801B07047C046C3
:101380001812000081B000900098124940580F21B7
:1013900008404142484101B07047C04681B00090CA
:1013A00000980C4940580F21090208400249401892
:1013B0004142484101B0704700F8FFFF81B0009002
:1013C0000098044940580F21090208404142484111
:1013D00001B070473C12000081B0009000980249B3
:1013E0004058C0B201B070471C12000081B000909C
:1013F0000099024A0248885001B070470408000072
:10140000030000B181B000900099434A0020885049
:1014100001B0704780B584B00191014601980391F5
:1014200002A9088003980922520280180988032221
:101430005202FFF7AFFC04B080BD000080B582B05F
:1014400001900091019809494018009909780C22EF
:10145000FFF750FC019801210903401800994978D1
:101460000722FFF747FC02B080BDC0460410000011
:1014700080B584B0019101460198039102A90880CA
:101480000398314A8018098807221202FFF782FC6C
:1014900004B080BD80B584B00191014601980391EC
:1014A00002A908700398284A801809780722FFF7D4
:1014B00071FC04B080BDC04682B0019068460170E6
:1014C00000780199014A885002B070472412000048
:1014D00010B586B00192024601980592049103AAC4
:1014E000107002A803800598094940180499490022
:1014F00012781143074AFFF761FC05980649401826
:1015000002990904C91D054AFFF758FC06B010BD31
:1015100010120000FF070000141200000700FF0F68
:1015200081B000900099084A885880231843885059
:1015300001B0704781B000900099034A8858802319
:101540009843885001B070473812000082B0019073
:10155000684601700078019991225201885002B0CA
:101560007047000082B0024601A802700091009B03
:10157000007830214143034A88581843885002B00C
:101580007047C0462811404082B0024601A8027050
:1015900000910178302048430249405800990840A2
:1015A00002B070471011404080B586B0059000F041
:1015B00083F8FFE700F0A8F801218903084088427A
:1015C00001D0FFE7F6E70598417E2B480290012203
:1015D0000392FFF7CBFB05982021415C274801903F
:1015E0000322FFF7C3FBFFF75FFB0146039804915B
:1015F00000210422FFF74AFB01980599496A09680E
:101600001F4A11600599496A49681E4A1160049988
:101610001D4A11600599C9694906490C7F221202C9
:10162000FFF7A4FB0298059A11680907090B536894
:101630001B039BB2C91893681B071B0DC918D368FD
:1016400019431369194353691943127E11430F4A11
:10165000FFF78CFB039A5D4908681202104308608B
:10166000FFE700F051F8012149020840884201D00B
:10167000FFE7F6E706B080BD20010B4024010B40D8
:1016800028010B402C010B400013404072FF0F005B
:101690005B49086801221207904308607047C04602
:1016A0004A49086801229043086070474749086822
:1016B00001229043086070474449086801221202E1
:1016C000904308607047C0464049086801221202F2
:1016D000904308607047C0464949086801221207D4
:1016E000104308607047C04673490868012212031E
:1016F000104308607047C046024908681022104332
:10170000086070473C010B40034800687047C046C2
:10171000014800687047C04604020B4081B0014692
:101720006846017000780249086001B07047C04601
:1017300008030B4080B582B0014601A801800188F2
:101740000F2002025C48FFF725FB02B080BDC046B7
:1017500080B582B0014601A80170007801030F2016
:1017600002033548FFF716FB02B080BD80B586B096
:1017700005AB01931880049103A802900270FFF753
:101780008FFF0198008800F023F8049800F02EF8ED
:1017900002980E4A11680123194311600078C007AE
:1017A00000280DD0FFE7FFF797FFFFE7FFF7ACFF3B
:1017B000012109020840884201D0FFE7F6E702E074
:1017C000FFF766FFFFE706B080BDC04608010B408B
:1017D00080B582B0014601A8018001880320020380
:1017E0000748FFF7C3FA02B080BDC04680B582B09B
:1017F000019001990248FF22FFF7B8FA02B080BDBC
:1018000010010B4081B00146684601700078024922
:10181000086001B07047C0460C010B4080B582B033
:10182000014601A801800188012042020248FFF719
:10183000B1FA02B080BDC04638010B4080B582B01D
:10184000014601A80170017802480322FFF7A2FABD
:1018500002B080BD00010B4080B582B0014601A8F6
:101860000170017814483022FFF794FA02B080BD6D
:1018700080B582B0014601A801700078FFF7C2FF71
:10188000FFE7FFF741FF012149050840884201D0E9
:10189000FFE7F6E7084908680122120410430860D0
:1018A000FFE7FFF731FF10210840102801D0FFE7C4
:1018B000F7E702B080BDC04604010B4080B58CB094
:1018C0000B900A910A984079C00700285CD0FFE786
:1018D0000A9800790790002804D0FFE7079820288D
:1018E0000CD018E00B9888210691022200F0B8F97C
:1018F00006990B98032200F0B3F919E00B98212107
:1019000009010591022200F0ABF905990B98032219
:1019100000F0A6F90CE00B980521C9010491022200
:1019200000F09EF904990B98032200F099F9FFE763
:101930000B980022029202230193114600F0AAF9AB
:10194000029A0B9803230393114600F0A3F901991F
:10195000029B0B98009119461A4600F0D3F9029B9E
:1019600003990B98009119461A4600F0CBF9019B98
:10197000029A0B98114600F0ABF9029A039B0B9860
:10198000114600F0A5F9FFE70A98006808900A9848
:10199000007908A908710A98807948710B9800F0BD
:1019A00031F80CB080BD000081B000900099024A6F
:1019B0000120885001B070470811000082B00190EA
:1019C0000091009B0199034A88581843885002B03F
:1019D0007047C0462810000081B000900099012097
:1019E000C2020248885001B07047C046010000267C
:1019F00081B000900098812149014058C0B201B0E7
:101A00007047000080B58AB0099008910898007965
:101A10000790002804D0FFE70798202812D029E07B
:101A2000099808990968491E00F0C6F909988821A3
:101A30000691002200F014F906990998012200F09D
:101A40000FF92AE0099808990968491E00F0B4F9CD
:101A500009982D490491002200F002F9049909988F
:101A60000122059200F0FCF805990998490700F059
:101A700095F912E0099808990968490800F09CF95D
:101A800009980521C9010391002200F0E9F80399A2
:101A90000998012200F0E4F8FFE709980023019378
:101AA00019461A4600F0F6F8019A099801230293A4
:101AB000114600F0EFF8019B0998009319461A4669
:101AC00000F020F9019B02990998009119461A46E5
:101AD00000F018F9019B099819461A4600F0F8F829
:101AE000019A029B0998114600F0F2F80998C24940
:101AF0004018089A11795279114302221143034A7E
:101B0000FFF70CF90AB080BD01040000BFFF0030F0
:101B100080B584B00390029103980299496800F05F
:101B20004BF9029800780190222856D8019881003C
:101B300001A040588746C046D11B0000DB1B0000B7
:101B4000D11B0000DB1B0000DB1B0000DB1B0000C7
:101B5000DB1B0000DB1B0000DB1B0000DB1B0000AD
:101B6000DB1B0000DB1B0000DB1B0000DB1B00009D
:101B7000DB1B0000DB1B0000C51B0000DB1B0000A3
:101B8000C51B0000DB1B0000DB1B0000DB1B000093
:101B9000DB1B0000DB1B0000DB1B0000DB1B00006D
:101BA000DB1B0000DB1B0000DB1B0000DB1B00005D
:101BB000DB1B0000DB1B0000C51B0000DB1B000063
:101BC000C51B000003980121490700F0E7F805E074
:101BD0000398002100F0E2F800E0FFE70398029983
:101BE000098A0022009200F0ADF8009B0398029948
:101BF000C9681A4600F04EF802990878097A084335
:101C000003997D4A885004B080BDC04681B00090E1
:101C10000099D04AD048885001B0704782B00190F6
:101C200000910098019911221202885002B0704769
:101C300080B584B00390029101A802700399224AF2
:101C40008918009101780098890040180090009848
:101C5000029907229204FFF761F804B080BDC046E4
:101C600080B584B00390029101A802700399074ADD
:101C70008918009101780098890040180090009818
:101C80000299034AFFF74AF804B080BD70180000BB
:101C9000DBB6C1FF10B586B005900491039202A88F
:101CA00003700599084A8918019101780198890003
:101CB0004018019001980499039A1143034AFFF7D1
:101CC0002DF806B010BDC04630180000777702002E
:101CD00010B586B005900491039202A8037005998F
:101CE0003122D201891801910178019889004018A8
:101CF000019001980499039A11438F22FFF70EF87F
:101D000006B010BD10B587B000910446009809993F
:101D1000069405900492039302A801700699084A5C
:101D2000891801910178019889004018019005985F
:101D300004990843039908430199086007B010BD4E
:101D40005018000084B00390029101A8027003991A
:101D5000064A89180091017800988900401800907F
:101D600002980099086004B07047C046101800003F
:101D700082B001900091009800780199924A8850B1
:101D800000984078019901221203885000988078C9
:101D90000199A84A885002B07047C04680B582B009
:101DA00001900091019814494018009903221207EC
:101DB000FEF7B4FF02B080BD82B0019000910098A0
:101DC0000199074A885002B07047C04682B001901E
:101DD000009100980199024A885002B07047C046AD
:101DE0000818000081B000900099034A8858012328
:101DF0001843885001B070470418000082B0019069
:101E0000009100980199024A885002B07047C0467C
:101E10004810000081B000900099112002028858FB
:101E200001239843885001B0704781B00090009919
:101E300011200202885801231843885001B07047CE
:101E400081B0009000990120C002024A885001B080
:101E50007047C0468810000081B0009000991120A2
:101E60000202885801235B041843885001B0704770
:101E700082B001900091009B0199034A8858184351
:101E8000885002B07047C0462810000081B0009012
:101E900000990120C2020248885001B07047C04634
:101EA0000100002682B0019000910198024940583B
:101EB0000099084002B070473810000081B00090CF
:101EC0000098812149014058C0B201B0704700001C
:101ED00080B582B0019000910198FFF79BFF0198B7
:101EE000112109024018009A1188937819439288A9
:101EF0001143084AFEF726FF01982A494018009A24
:101F00009179D3791943127A11437E22FEF71AFF91
:101F100002B080BD1867020081B0009000980349AC
:101F20004058C0B2C00901B07047C0460811000057
:101F300081B00090009802494058C0B201B070478B
:101F40002411000081B000900099024A0248885094
:101F500001B0704704080000030000B180B584B0F0
:101F600003900291019203980B49401802990B4A81
:101F7000FEF710FF03980A49401801993F22FEF727
:101F800009FF0399074A8818895801221140FEF772
:101F900001FF04B080BDC04610110000FFFF00002B
:101FA000141100000411000082B00190009100980B
:101FB00000780199044A88500098407801990122DC
:101FC0001203885002B070470810000080B582B03C
:101FD00001900091019811210902401800990322F3
:101FE000D203FEF7D7FE02B080BD000080B584B0FA
:101FF000019101460198039102A9087003980D4AC6
:10200000801809787022FEF7C5FE04B080BDC04676
:1020100080B584B0019101460198039102A908702E
:102020000398044A801809780722FEF7B3FE04B02B
:1020300080BDC0460C11000082B00190684601705E
:102040000078019989225201885002B0704780B50A
:1020500082B0019068460170FFE70198FFF75CFFCE
:10206000002801D0FFE7F8E7019869460978FFF7F3
:10207000E3FF02B080BD80B582B00190019808F006
:10208000CEF902B080BD000080B584B0002003907E
:1020900001A90870FFE701A80078072825DCFFE701
:1020A00001A801780020009003F0F2FA009802A93C
:1020B0000870FFE702A800787F2810DCFFE703998B
:1020C000481C03900C48405C03F038FB0120FFF7EC
:1020D000D2FFFFE70298401C02A90870EAE7FFE779
:1020E0000198401C01A90870D5E7C820FFF7C3FF7D
:1020F00002F0A0F904B080BD306801007047000014
:1021000080B590B00F900F986149FEF76AF87D2175
:10211000C905FEF70DF80C900C98FEF78FFA0890A1
:102120000C980021FEF70EFA002804D1FFE708986A
:10213000401E0890FFE70C9800900898FEF758FAA8
:1021400001460098FEF745F80C900C98112189067D
:10215000FEF747F807900798FEF770FA0146E64841
:1021600001400BA802900180079901910088FEF7B9
:102170004AFA01460198FEF72CF8014602980D91A3
:1021800001888A00DD498A580A9200888000401838
:10219000406809900D9903917F20C005FEF719F85A
:1021A0000146039805910A9904910999FEF719F8D7
:1021B0000499024605980692FEF713F80699FDF772
:1021C000B7FF0E900E9810B080BDC04680B590B09D
:1021D0000F900F98C749FEF704F80C900C98FEF783
:1021E0002DFA08900F980021FEF7ACF9002804D1D1
:1021F000FFE70898401E0890FFE70C9800900898A9
:10220000FEF7F6F901460098FDF7E3FF0C900C98F5
:1022100011218906FDF7E5FF07900798FEF70EFAF2
:102220000146B54801400BA8029001800799019131
:102230000088FEF7E8F901460198FDF7CAFF01465C
:1022400002980D9101888A00AC498A580A92008848
:1022500080004018406809900D9903917F20C005C7
:10226000FDF7B7FF0146039805910A990491099972
:10227000FDF7B7FF0499024605980692FDF7B1FFF6
:102280000699FDF755FF0E900E9810B080BDC04620
:1022900083F9223E10B5B0B02F902E912D922F9839
:1022A0009449FDF79EFF2B902B98FEF7C7F92490D9
:1022B0002B980021FEF746F9002804D1FFE7249867
:1022C000401E2490FFE72B9800902498FEF790F989
:1022D00001460098FDF77DFF2B902B981121890670
:1022E000FDF77FFF23902398FEF7A8F90146824A65
:1022F00011402AA80F9001802A998031114029AA03
:1023000011921180239901910088FEF77CF9014612
:102310000198FDF75EFF119902460F982C920A88EA
:102320009300764A1092D358289309888900891817
:10233000496827910188890053580121C9074B40FA
:1023400026930088800080184068484025906C489B
:10235000229027982899FDF73CFF2190229803901E
:1023600026982599FDF7E4FE029021990846FDF78D
:10237000DFFE0299024603980492FDF732FF0499AA
:10238000FDF727FF20902C9809902098089021981D
:1023900006902598059026990846FDF7C9FE0599EF
:1023A000FDF7C6FE2299FDF71CFF0146069807912E
:1023B00054491691FDF715FF0799FDF70AFF089993
:1023C000024609980A92FDF70CFF0A99FDF7B0FE44
:1023D00020902C980C9020980B9026982299FDF72D
:1023E00000FF0B9902460C980D92FDF7FAFE0D992D
:1023F000FDF79EFE20902C982099289A0E92FDF7CA
:10240000F0FE0E99FDF794FE0F9A1099034611986D
:102410002D9C236013889B00CB5828931288920030
:10242000521852682792028892008A582692008891
:10243000800040184068259027982899FDF7C9FE2C
:1024400021902298139026982599FDF771FE1290FD
:1024500021990846FDF76CFE1299024613981492D2
:10246000FDF7BFFE1499FDF7B4FE20902C981A904A
:10247000209819902198179025981590269908462C
:10248000FDF756FE1599FDF753FE2299FDF7A9FEBB
:102490001699024617981892FDF7A3FE1899FDF7B2
:1024A00098FE199902461A981B92FDF79AFE1B99FD
:1024B000FDF73EFE20902C981D9020981C902698A9
:1024C0002299FDF78EFE1C9902461D981E92FDF77B
:1024D00088FE1E99FDF72CFE20902C982099289AB2
:1024E0001F92FDF77EFE1F99FDF722FE2E990860D0
:1024F00030B010BD83F9223EFF010000D06D010015
:10250000DB0F493C0000404010B583B002900191C0
:10251000684602701D480121890701600078002883
:1025200019D1FFE702980168184801600278019B01
:1025300069460C781A554278019C0B781B195A7021
:102540008278019C0B781B199A70C078019A0978DF
:102550008918C87018E0029801680C480160C278B8
:10256000019B69460C781A558278019C0B781B19DF
:102570005A704278019C0B781B199A700078019A66
:1025800009788918C870FFE703B010BD80062020C5
:1025900080B59CB013901B911B9801690846FDF70C
:1025A00020FE1A901B9908694969FDF71AFE1990D7
:1025B0001B9908698969FDF714FE18901B99086931
:1025C000C969FDF70EFE17901B9948698969FDF7E7
:1025D00008FE16901B994869C969FDF702FE15901F
:1025E0001B998869C969FDF7FCFD14901A983F2171
:1025F00009060F91FDF7EDFD00901B9804904169CD
:102600000846FDF7EEFD0099FDF792FD014604989E
:102610000291006A019016981799FDF7DAFD049966
:10262000496AFDF7DEFD0199024602980392FDF723
:10263000D8FD0399FDF77CFD059015981899FDF7D5
:1026400077FD0499896AFDF7CCFD0599FDF770FDCA
:1026500001460846FDF76CFD139908601698179916
:10266000FDF766FD0F9908901B980A90006A079085
:102670001A98FDF7AEFD01460A9806918169084651
:10268000FDF7AFFD0699FDF753FD0A99496AFDF77D
:10269000A8FD0799024608980992FDF7A2FD09993D
:1026A000FDF746FD0B9014981999FDF792FD0A99D4
:1026B000896AFDF796FD0B99FDF73AFD014608463C
:1026C000FDF736FD1399486015981899FDF781FDBF
:1026D0000D901B981190006A0C9014981999FDF7B1
:1026E00027FD1199496AFDF77CFD0C9902460D986A
:1026F0000E92FDF776FD0E99FDF71AFD0F991290D7
:102700001A98FDF766FD014611981091C1690846B7
:10271000FDF767FD1099FDF70BFD1199896AFDF72B
:1027200060FD1299FDF704FD01460846FDF700FD26
:102730000349FDF7FDFC139988601CB080BDC046BD
:10274000000080BF82B0009101460098019001987E
:10275000C269CA6082698A6042694A600069086029
:1027600002B0704780B586B00590002004900748FD
:10277000039002903F2000060190059801A900F007
:10278000BBF8059800F004F806B080BD0000B44224
:102790008EB00D900D9A7F20C005099000200A9000
:1027A0000B900C900C99D1610B9991610A99516130
:1027B000099911610D9A0690079008900899916205
:1027C00007995162069911620D9A2C230121D15467
:1027D0000D9A7E4911630D9A039004900590059916
:1027E00011640499D163039991630D9A009001904B
:1027F00002900299D16401999164009951640D99F4
:10280000502288540D9948650D99582288540D9985
:10281000592288540D99C8650D99602288540EB0CC
:102820007047C046F0B59BB01A9019911A99086983
:102830000690C8690990486989690891FDF7D1FC3B
:102840000999024606980792FDF7CBFC0799FDF718
:102850006FFC08990B900846FDF7C3FC01463F202A
:1028600000060D90FDF7B5FC09990A900846FDF7A2
:10287000B8FC01460A98FDF7ACFC01460B9812F033
:102880001BFF189018980C90199800F08DFB0146CA
:102890000C98FDF79EFC0D99FDF7A3FC1790179877
:1028A00013F058F81390002014901590179813F017
:1028B0001DFC01460120C007FDF78BFC16901A9FF6
:1028C0000E97159B149A139916983C697D69BE69F9
:1028D000FF69049703960295019400900FA800F0F9
:1028E00096FC0E991298C8611198886110984861F9
:1028F0000F9808611BB0F0BD80B584B003900291C1
:102900000298006803990860029840680021FDF76A
:1029100035FE002805D1FFE70298C068002804D1E1
:10292000FFE703992848486010E00298406800F0EB
:102930003BFB13F0DBFB3F210906FDF752FC0121B5
:10294000890713F0C3F803994860FFE7029880688D
:102950000021FDF713FE002805D1FFE70298C068AB
:10296000002804D1FFE703991748886010E0029817
:10297000806800F019FB13F0B9FB3F210906FDF751
:1029800030FC0121890713F0A1F803998860FFE763
:102990000298C0680399C86003982C21405CC00766
:1029A000002804D1FFE7039908680863FFE703984C
:1029B000019001680548FDF70CFC0549FDF74EFC48
:1029C0000199486304B080BDFFFF7F7F0000204174
:1029D00000004040F0B5E9B00F4622907398239074
:1029E000729824907199709E6F9D6E9C7498229835
:1029F0006893239B6792249A66976596649563947F
:102A00006293619260915F905F9965988862649823
:102A10004862639808625F982C21405CC0070028D8
:102A200022D0FFE75F9A2192506B7499126B20922B
:102A3000FDF7D7FB01462098FDF7CBFB21990863F2
:102A40005F99086B0968FDF77DFD00280BD1FFE752
:102A50005F99086808635F992C22002088545F9969
:102A600058228854FFE7FFE75F9948691990C869C1
:102A7000189008698969FDF7B4FB189902461998FE
:102A80001A92FDF7AEFB1A99FDF7A3FB5C905F99D4
:102A900088691C90C8691B9008694969FDF7A1FB0A
:102AA0001B9902461C981D92FDF79BFB1D99FDF793
:102AB0003FFB5D905F981E9001690846FDF791FB12
:102AC000BF210906FDF734FB01461E981F91C1691D
:102AD0000846FDF786FB1F99FDF72AFB5E90002054
:102AE0005B905A9059905F99502201208854659AC2
:102AF0006499639800F0A8FE002873D1FFE75F99FE
:102B0000486DC96888421DD9FFE75F98C16958912F
:102B10008169579141695691006955905F98FFF717
:102B200037FE5F995898C8615798886156984861F0
:102B3000559808615F99002048655F9958220120E7
:102B40008854FFE75F981790659B649A63994FA834
:102B500000F01DFF519B509A4F995C985D9C5E9DC3
:102B600002950194009052A800F094FD1799549892
:102B700008645398C863529888635F982C21405C1E
:102B80000121084001280DD0FFE75F98026CC16B5E
:102B9000806B00F081FE5F994968FDF7E1FC002839
:102BA0001AD1FFE75F98016C5B91C16B5A91806B02
:102BB00059905F995022002088545F981490416D7D
:102BC000159108460A380929169001D815981690CB
:102BD00014991698486504E05F99486D401C486553
:102BE000FFE7FFE700204E904D904C905F995922EF
:102BF00001208854629A6199609800F025FE0028AF
:102C000000D0B8E05F996022002088545F99C86DB9
:102C1000C968884218D9FFE75F9813905E9A5D995A
:102C20005C98609B619C629D0195009400F082F924
:102C300001461398FFF7F6FD5F990020C8655F997C
:102C4000602201208854FFE75F9948690B908869EA
:102C50000A900869C969FDF7C4FA0A9902460B98F7
:102C60000C92FDF7BEFA0C99FDF762FA49905F9855
:102C70000D9001690846FDF7B4FABF210906FDF77A
:102C800057FA01460D980E9181690846FDF7A9FA99
:102C90000E99FDF74DFA4A905F9988691090C869BE
:102CA0000F9008694969FDF79CFA0F990246109840
:102CB0001192FDF796FA1199FDF78BFA4B905F98F8
:102CC00012905E9B5D9A5C996098619C629D0295F2
:102CD0000194009040A800F0DDFC429B419A40998D
:102CE00043A800F054FE459B449A439949984A9C56
:102CF0004B9D02950194009046A800F0CBFC1299E0
:102D00004898C86447988864469848645F982C211E
:102D1000405C0121084001280DD0FFE75F98C26C9C
:102D2000816C406C00F0B8FD5F998968FDF718FC74
:102D300000281AD1FFE75F98C16C4E91816C4D91CC
:102D4000406C4C905F995922002088545F980790FE
:102D5000C16D089108460A380929099001D80898D8
:102D6000099007990998C86504E05F99C86D401CEF
:102D7000C865FFE7FFE73F20000600F015F9689BF4
:102D8000679A669900903DA800F0B0FD5B9B5A9A47
:102D900059994C984D9C4E9D02950194009034A8F1
:102DA00000F032FC5F98006B369B359A34990090A6
:102DB00037A800F09BFD3F9B3E9A3D993798389C81
:102DC000399D0295019400903AA800F01DFC5F988F
:102DD000059074983C9B3B9A3A99009029A800F082
:102DE00085FD0598836942690169C069299C2A9D0E
:102DF0002B9E03960295019400902CA800F0AEFA49
:102E00000598836942690169C0692C9C2D9D2E9E9D
:102E10002F9F0497039602950194009030A800F02C
:102E2000C7F905993398C86132988861319848612B
:102E3000309808615F980690836942690169C069AA
:102E4000009025A800F010FB06992898C8612798E3
:102E50008861269848612598086169B0F0BDF0B591
:102E600095B01E4615460C461C9B1B9A1A991D9F31
:102E7000149613951294119310920F910E900E9830
:102E80000A9000200B900C900D901D980790149BB9
:102E9000139A12990F9C109D119E0B9F0C980990EC
:102EA0000D98089007980690089805900998049046
:102EB0000A980397029601950094FFF78BFD0E98F0
:102EC0002C21405CC00700280CD0FFE70E98582149
:102ED000405CC007002805D1FFE70E980021FFF7EE
:102EE000A1FCFFE715B0F0BD80B582B0009000985E
:102EF0000D49FDF735FB002803D1FFE70C48019091
:102F00000FE000987F21C905FDF70EFB002803D1D3
:102F1000FFE70648019004E0009812F033FA0190B0
:102F2000FFE7019802B080BD000080BFDB0FC93F02
:102F3000DB0FC9BF70B596B015460C4602461B990B
:102F40001A98159514941392129111901093159B41
:102F5000149A13991098119C129D02950194009057
:102F60000AA800F0E1FB0C9B0B9A0A990DA800F04F
:102F700027FD0F9B0E9A0D991398149C159D029591
:102F80000194009004A800F0CFFB069B059A0499D9
:102F900007A800F015FD07990D9812F08DFB00F0C1
:102FA00027FB16B070BD000080B582B0019001987B
:102FB0000249FDF716F902B080BDC04635FA8E3CD5
:102FC00080B584B0039003980290029841101C4889
:102FD000401A02900298019003981A49FDF701F9EE
:102FE0000199FDF7FEF80199FDF7FBF81649FDF789
:102FF0009FF801460198FDF7F4F804B080BDC04683
:1030000080B584B0039003980290029841100C4858
:10301000401A02900298019003980A49FDF7E1F8DE
:103020000199FDF7DEF80199FDF7DBF80649FDF798
:103030007FF801460198FDF7D4F804B080BDC04682
:1030400012141F5F12D336BFFF51D83F80B586B030
:10305000059004910498FDF7D6FA01467F20C0053B
:10306000FDF7FCF80C49FDF7BCF8059908600499D8
:103070000520484305994860059900208860059916
:1030800001900290039003984861029808610198AA
:10309000C86006B080BDC046FDAD003EB0B592B080
:1030A00004901698119010930F920E910E9D119B03
:1030B000109A0F99E8682C696D6902950194009047
:1030C0000BA800F096FC0D9811900C9810900B989E
:1030D0000F900F98FDF7DFFA0122D20791430022EB
:1030E000324BFDF76FFA00281AD1FFE71098FDF771
:1030F000D2FA0122D207914300222C4BFDF762FA4B
:1031000000280DD1FFE71198FDF7C5FA0122D2077B
:1031100091430022254BFDF73FFA00280BD1FFE732
:1031200004990E9A00209060119888601098486069
:103130000F98086037E00E998868496888420CD279
:10314000FFE704990E9A9068401C9060119888607F
:10315000109848600F98086025E00E98039000686A
:10316000119B109A0F99009005A800F0F5FB0398A9
:1031700043690269C1680598069C079D0295019400
:10318000009008A800F063FA039A04990A98506125
:10319000099810610898D06011988860109848606C
:1031A0000F980860FFE712B0B0BDC04600000840AD
:1031B000F0B58BB01E4615460C460290149B139A30
:1031C000129801901198109F01990A9709960895F5
:1031D0000794069305920491039007980399FCF7CE
:1031E000A7FF0299086008980499FCF7A1FF0299CB
:1031F000486009980599FCF79BFF029988600A9836
:103200000699FCF795FF0299C8600BB0F0BDF0B5C8
:103210009FB01E4615460C461690289B279A269866
:1032200001902598249F01991E971D961C951B942B
:103230001A931992189117901B980390179802905F
:103240001C981899FCF7CDFF029902460398049246
:10325000FCF7C7FF0499FCF7BCFF05901D9819996E
:10326000FCF7BFFF01460598FCF7B3FF06901E98D8
:103270001A99FCF7B6FF01460698FCF7AAFF1699C3
:1032800008601B980890189807901C981799FCF7ED
:10329000A8FF0799024608980992FCF7A2FF09992E
:1032A000FCF746FF0A901D981A99FCF79AFF0A99B5
:1032B000FCF73EFF0B901E981999FCF792FF014610
:1032C0000B98FCF786FF169948601B980D9019988B
:1032D0000C901C981A99FCF784FF0C9902460D98E3
:1032E0000E92FCF77EFF0E99FCF773FF0F901D986E
:1032F0001799FCF776FF0F99FCF71AFF10901E98AC
:103300001899FCF76EFF1099FCF712FF1699886068
:103310001B9812901A9811901C981999FCF761FF4C
:103320001199024612981392FCF75BFF1399FCF770
:10333000FFFE14901D981899FCF753FF014614984E
:10334000FCF747FF15901E981799FCF74AFF15994F
:10335000FCF7EEFE1699C8601FB0F0BDF0B599B04D
:103360001D4614460B461190219A20991F981E9EC7
:103370001896179516941593149213911290169807
:1033800002901298019017981399FCF72AFF01995F
:10339000024602980123DB075A400392FCF721FF03
:1033A00001460398FCF715FF049018981499FCF750
:1033B00018FF01460498FCF70CFF11990860159856
:1033C00006901298059017981499FCF70AFF059932
:1033D000024606980792FCF704FF0799FCF7A8FE3F
:1033E000089018981399FCF7FCFE01460898FCF722
:1033F000F0FE1199486015980A9013980990169854
:103400001499FCF7EEFE099902460A980B92FCF714
:10341000E8FE0B99FCF7DDFE0C9018981299FCF76A
:10342000E0FE0C99FCF784FE1199886015980E90C7
:1034300014980D9016981399FCF7D3FE0D99024637
:103440000E980F92FCF7CDFE0F99FCF771FE1090CD
:1034500017981299FCF7C5FE01461098FCF7B9FEC3
:103460001199C86019B0F0BD10B58AB004900C98DD
:1034700009900893079206910698009007990846CC
:10348000FCF7AFFE009901900846FCF7AAFE0199EF
:10349000FCF74EFE029008990846FCF7A2FE02993E
:1034A000FCF746FE039009990846FCF79AFE03993B
:1034B000FCF73EFEFFF784FD059006980599FCF7A2
:1034C00090FE0499086007980599FCF78AFE049914
:1034D000486008980599FCF784FE0499886009986B
:1034E0000599FCF77EFE0499C8600AB010BD10B5BE
:1034F00094B00E9016981390129311921091129905
:103500000846FCF76EFE01463F200006FCF761FE10
:103510000F90109801901198039012981399FCF74E
:1035200060FE0399024601980292FCF75AFE029946
:10353000FCF7FEFD039905900F9804900846FCF7F0
:1035400050FE01460498FCF744FE0146059812F02F
:10355000B3F800F043F80E9908601098079012989D
:10356000069013981199FCF73CFE069902460798BD
:103570000892FCF736FE0899FCF72BFE0146084638
:10358000FCF7D6FDFFF7B0FC00F028F80E99486074
:103590001098099013980B9011981299FCF721FE3E
:1035A0000B99024609980A92FCF71BFE0A99FCF750
:1035B000BFFD0B990D900F980C900846FCF711FE7B
:1035C00001460C98FCF705FE01460D9812F074F8C0
:1035D00000F004F80E99886014B010BD80B582B078
:1035E000019001980749FCF7FCFD02B080BDC04680
:1035F00080B582B0019001980249FCF7F2FD02B05B
:1036000080BDC046E02E654270B588B01D461446A8
:103610000B4601900E9A0D990C9807950694059308
:1036200004920391029005980299FCF781FD01999B
:10363000086006980399FCF77BFD0199486007989C
:103640000499FCF775FD0199886008B070BD70B5EC
:1036500088B01D4614460B4601900E9A0D990C98A1
:103660000795069405930492039102900598029998
:10367000FCF75EFD0199086006980399FCF758FD78
:103680000199486007980499FCF752FD01998860F8
:1036900008B070BD70B590B01D4614460B46099039
:1036A000169A159914980F950E940D930C920B91F0
:1036B0000A900E9801900C9800900F980B99FCF7C7
:1036C00090FD0099024601980292FCF78AFD02994A
:1036D000FCF77FFD099908600F9804900A98039001
:1036E0000D980C99FCF77DFD03990246049805920C
:1036F000FCF777FD0599FCF76CFD099948600D987A
:1037000007900B9806900E980A99FCF76AFD0699A7
:10371000024607980892FCF764FD0899FCF759FDEA
:103720000999886010B070BD70B590B01D46144600
:103730000B460990169A159914980F950E940D93AF
:103740000C920B910A900E9801900C9800900F9893
:103750000B99FCF746FD0099024601980292FCF78E
:1037600040FD0299FCF735FD099908600F98049017
:103770000A9803900D980C99FCF733FD03990246C3
:1037800004980592FCF72DFD0599FCF722FD099997
:1037900048600D9807900B9806900E980A99FCF7D0
:1037A00020FD0699024607980892FCF71AFD089931
:1037B000FCF70FFD0999886010B070BD70B588B036
:1037C0001D4614460B4601900E9A0D990C980795CC
:1037D0000694059304920391029005980299FCF7D0
:1037E00000FD0199086006980399FCF7FAFC01991D
:1037F000486007980499FCF7F4FC0199886008B0C8
:1038000070BD70B588B01D4614460B4601900E9AE7
:103810000D990C98079506940593049203910290D4
:1038200005980299FCF7DDFC019908600698039958
:10383000FCF7D7FC0199486007980499FCF7D1FC84
:103840000199886008B070BD80B586B0059204917A
:103850000390039800210191FCF790FE0146019826
:103860000029029013D0FFE7049800210091FCF793
:1038700085FE014600980029029008D0FFE70598D0
:103880000021FCF77BFE411E88410290FFE7029871
:103890000121084006B080BD80B58AB00992089128
:1038A00007900799089A099B02930192009104A836
:1038B000FFF784FF069A0599049800F0BDF80AB056
:1038C00080BD80B58AB00992089107900799089A3F
:1038D000099B02930192009104A8FFF792FF069AB8
:1038E0000599049800F0B6F80AB080BD80B584B0A0
:1038F0000090069803930292019101980699FCF7B3
:1039000070FC0099086002980699FCF76AFC00991F
:10391000486003980699FCF764FC0099886004B03D
:1039200080BD80B584B00090069803930292019107
:1039300001980699FCF755FC0099086002980699D1
:10394000FCF74FFC0099486003980699FCF749FC86
:103950000099886004B080BD80B584B0009006985E
:1039600003930292019101980699FCF73AFC0099A1
:10397000086002980699FCF734FC009948600398A7
:103980000699FCF72EFC0099886004B080BD10B544
:1039900086B00190059304920391059A04990398C7
:1039A000FFF77AFFFFF70CFB014601980291029C9A
:1039B000059B049A03990094FFF798FF06B010BD89
:1039C00010B586B00190059304920391059A04996D
:1039D0000398FFF776FFFFF713FB0146019802916A
:1039E000029C059B049A03990094FFF79AFF06B086
:1039F00010BD70B588B01D4614460B4601900E9A56
:103A00000D990C98079506940593049203910290E2
:103A100005980299FCF7DDFB019908600698039967
:103A2000FCF7D7FB0199486007980499FCF7D1FB94
:103A30000199886008B070BD80B584B0039202918E
:103A4000019001980299FCF773FB0399FCF770FB56
:103A500004B080BD80B584B00392029101900198BA
:103A60000299FCF765FB0399FCF762FB04B080BD8B
:103A700080B501200221FDF787FD002821D0FFE756
:103A800010481021FDF704FB002807D0FFE701F0E4
:103A9000B1FE0C481021FDF76DFAFFE7094820211F
:103AA000FDF7F6FA002807D0FFE701F0EBFE054826
:103AB0002021FDF75FFAFFE701200221FDF752FD0B
:103AC000FFE780BD00200A4002490868401C0860EA
:103AD0007047C046E828202010B58EB005910146F9
:103AE00005980DAC21700CA908700B920AA8037000
:103AF00009AB0693C82207921A8002789C48FDF70A
:103B0000F9FB069907980880FFE79948FDF730FC14
:103B10000146002089060029049008D4FFE709AA7D
:103B20001088411E1180411E88410490FFE70498CF
:103B3000C007002801D0FFE7E7E70DA801788C480F
:103B400000220123FDF7C4FC09A9C8200880FFE773
:103B50008748FDF70DFC0146002049060029039027
:103B600008D5FFE709AA1088411E1180411E88412F
:103B70000390FFE70398C007002801D0FFE7E7E7BD
:103B800009A9C8200880FFE77948FDF7F1FB014645
:103B9000002089060029029008D4FFE709AA1088AE
:103BA000411E1180411E88410290FFE70298C00724
:103BB000002801D0FFE7E7E76D480190FDF7C4FB5F
:103BC00001980DA909780AAA13780122FDF780FC53
:103BD00008A900200870FFE708A800780AA909785A
:103BE000884228DAFFE709A9C8200880FFE7604873
:103BF000FDF7C8FB014600200029009008D0FFE730
:103C000009AA1088411E1180411E88410090FFE7DB
:103C10000098C007002801D0FFE7E8E75448FDF707
:103C2000DBFB0B9908AA12788854FFE70898401C20
:103C300008A90870D0E70EB010BDC04610B58CB012
:103C40000BAC20700AA80170099208A8037007A99C
:103C5000C82008800020069005900A9905AA1170D6
:103C600003AA0121117004A90870FFE704A80078D5
:103C700008A90978884211DAFFE7099804A90978A8
:103C8000405C03A90B7805AAD0540398401C087027
:103C9000FFE70498401C04A90870E7E708A800782B
:103CA000421C334805A9FDF725FB07A9C820088059
:103CB000FFE72F48FDF75CFB01460020890600293D
:103CC000029008D4FFE707AA1088411E1180411E08
:103CD00088410290FFE70298C007002801D0FFE763
:103CE000E7E70BA8017808A80078431C20480022C9
:103CF000FDF7EEFB07A9C8200880FFE71C48FDF789
:103D000037FB0146002049060029019008D5FFE74E
:103D100007AA1088411E1180411E88410190FFE7CB
:103D20000198C007002801D0FFE7E7E707A9C820EE
:103D30000880FFE70E48FDF71BFB014600208906BF
:103D40000029009008D4FFE707AA1088411E1180BF
:103D5000411E88410090FFE70098C007002801D06D
:103D6000FFE7E7E70248FDF7EFFA0CB010BDC046E9
:103D700000200F4080B596B015A900200870934828
:103D8000129000786B2181220EF019F8642006F061
:103D900046FB1298007875210DF0FCFF01468C4817
:103DA00001700078139012286DD0FFE713986828EF
:103DB00009D0FFE7139898283AD0FFE71398AE3858
:103DC000022860D3F4E08148109000786B210F91B5
:103DD00080220DF0F4FFC82006F021FB0F99109807
:103DE000007800220E920DF0EAFF0A2006F017FB81
:103DF0000E9A1098007819210DF0E1FF0F99109894
:103E0000007803220DF0DBFF109800781A210222BF
:103E10000DF0D5FF109800781B21102211920DF0A3
:103E2000CEFF1098119A00781C210DF0C8FFC3E056
:103E300066480D9000786B2100220B920DF0BFFFB9
:103E40000B9A0D98007819210DF0B9FF642006F047
:103E5000E6FA0D9800781A2102220DF0B0FF0D98B5
:103E600000781B2110220C920DF0A9FF0C9A0D98DE
:103E700000781C210DF0A3FF0D9800781D2103226E
:103E80000DF09DFF98E05148089000786B2100915B
:103E900080220DF094FFC820029006F0C0FA00992D
:103EA0000898007801220DF08AFF0A2006F0B7FA80
:103EB000089800781921039100220A920DF07FFFE3
:103EC000089800781A21049102220DF078FF0898D2
:103ED00000781B210591102201920DF070FF019ACC
:103EE000089800781C2106910DF069FF0898007869
:103EF0001D21079103220DF062FF08980A9A0078AD
:103F00006C210DF05CFF08980A9A00781E210DF0D4
:103F100056FF08980A9A007823210DF050FF029866
:103F200006F07DFA0399089800780DF033FF0499A4
:103F300002460898274B09931A7000780DF02AFF63
:103F40000599099B024608985A7000780DF022FFE7
:103F50000699099B024608989A7000780DF01AFF9E
:103F60000799099B02460898DA7000780DF012FF55
:103F7000099A01460A98117114A90870FFE714A85C
:103F80000078042813DCFFE714A802781148805C4D
:103F90001149895C884204D0FFE715A90120087007
:103FA000FFE7FFE71498401C14A90870E7E703E057
:103FB00015A901200870FFE77D20800006F02FFA88
:103FC00008F0B6F915A8007816B080BD6B04202063
:103FD00004002020EC2820206604202080B59CB01E
:103FE0001B901A911992DF4800783B2115AA0E23E5
:103FF00007F0F4FFDC4800781390122800D1C4E0E9
:10400000139868280AD0FFE7139898285DD0FFE737
:104010001398AE38022800D2B7E016E115980002D6
:1040200015A911914978401800B24042FCF7E0FA16
:1040300011991A9A106088780002C978401800B265
:104040004042FCF7D5FA11991A9A5060169800026E
:104050004979401800B2FCF7CBFA11991A9A90608E
:1040600088790002CA79801814AA129210801798D1
:104070000002497A401800B24042FCF7B9FA11999F
:104080001B9A1060887A0002C97A401800B2404238
:10409000FCF7AEFA11991B9A506018980002497B00
:1040A000401800B2FCF7A4FA014612981B9A9160DE
:1040B0000021405EFCF79CFAAF49FCF7CFF8AF490E
:1040C000FCF736F81999086016E11598000215A951
:1040D0000E914978401800B2FCF78AFA0E991A9AA4
:1040E000106088780002C978401800B24042FCF79E
:1040F0007FFA0E991A9A5060169800024979401872
:1041000000B24042FCF774FA0E991A9A90608879CE
:104110000002CA79801814AA0F9210801798000222
:10412000497A401800B2FCF763FA0E991B9A1060A6
:10413000887A0002C97A401800B24042FCF758FA67
:104140000E991B9A506018980002497B401800B2E3
:104150004042FCF74DFA01460F981B9A91600021EE
:104160001091405EFCF744FA8049FBF7E1FF80497B
:10417000FCF774F8FCF78FFA109A7E4BFCF7ACF85A
:10418000FCF79DFA19990860B6E01598000215A988
:104190000B914978401800B24042FCF729FA0B997C
:1041A0001A9A106088780002C978401800B2FCF7AB
:1041B0001FFA0B991A9A5060169800024979401814
:1041C00000B24042FCF714FA0B991A9A9060887971
:1041D0000002CA79801814AA0C9210801798000265
:1041E000497A401800B24042FCF702FA0B991B9A38
:1041F0001060887A0002C97A401800B2FCF7F8F91A
:104200000B991B9A506018980002497B401800B225
:104210004042FCF7EDF901460C981B9A9160002191
:104220000D91405EFCF7E4F95049FBF781FF5049DE
:10423000FCF714F8FCF72FFA0D9A4E4BFCF74CF8EC
:10424000FCF73DFA1999086056E01598000215A987
:1042500009914978401800B24042FCF7C9F9099920
:104260001A9A106088780002C978401800B240425B
:10427000FCF7BEF909991A9A50601698000249791C
:10428000401800B2FCF7B4F909991A9A906088793D
:104290000002CA79801814AA0A92108017980002A6
:1042A000497A401800B24042FCF7A2F909991B9ADA
:1042B0001060887A0002C97A401800B24042FCF7C8
:1042C00097F909991B9A506018980002497B401889
:1042D00000B2FCF78DF901460A981B9A9160002103
:1042E000405EFCF785F92449FBF7B8FF2349FBF74B
:1042F0001FFF19990860FFE71B980190006820498B
:104300000391FBF76EFF019A039910601B980290CE
:104310004068FBF766FF029A039950601B9804906F
:104320008068FBF75EFF049988601A980590006822
:104330008B21C9050791FBF791FF059A079910603A
:104340001A9806904068FBF789FF069A0799506013
:104350001A9808908068FBF781FF089988601CB064
:1043600080BDC0466B042020040020200000C8C18E
:104370006666A343000039400000AA43B81E1242FB
:10438000F8C1F93C80B528480078012813D1FFE72F
:1043900026480188491E01800021405E002804D57E
:1043A000FFE722491F200880FFE71F49002008700F
:1043B00000F040F8FFE71C482021405C012814D1A0
:1043C000FFE71A480188491C01800021405E20282F
:1043D00004DBFFE7154900200880FFE7124920228F
:1043E0000020885400F026F8FFE70F48C021405C09
:1043F000022817D1FFE70C49C022002088540C483E
:104400003E21405C002805D1FFE709493E220120FA
:10441000885404E006493E2200208854FFE706F055
:10442000ADFAFFE780BDC046441F2020882A202027
:104430006433202080B582B001A900200870FFE716
:1044400001A80078072823DCFFE70198B030C0B24C
:1044500001F03AF9012001F037F9102001F034F9A8
:10446000694600200870FFE7684600787F2809DC6D
:10447000FFE7002001F062F9FFE70098401C694661
:104480000870F1E7FFE70198401C01A90870D7E721
:1044900002B080BD80B586B0034605A8037004ABAA
:1044A000197003A90A700399203901AA11700078C4
:1044B0007F2808DBFFE705A9002008700498401C4E
:1044C00004A90870FFE705A8007804A9097801F09D
:1044D000DFF802A900200870FFE702A8007805288D
:1044E00011DCFFE701A8007806214143324840185B
:1044F00002A90978405C01F021F9FFE70298401C0D
:1045000002A90870E9E706B080BDC04680B586B054
:1045100005AB187004A80170039202A9002008706E
:1045200001A9087069460870FFE703986946097891
:10453000405C00283DD0FFE7039869460978405C5D
:10454000203802A9087005A800787F2808DBFFE75B
:1045500005A9002008700498401C04A90870FFE712
:1045600005A8007804A9097801F092F801A90020B3
:104570000870FFE701A80078052811DCFFE702A812
:104580000078062141430C48401801A90978405C95
:1045900001F0D4F8FFE70198401C01A90870E9E791
:1045A0000598801D05A908700098401C6946087090
:1045B000BBE706B080BDC0460866010080B584B088
:1045C00003AA0092107002A8019001700298B03006
:1045D000C0B201F079F8012001F076F8102001F066
:1045E00073F8009801990078097801F051F8FFE715
:1045F00003A800787F2809DCFFE7002001F09EF87F
:10460000FFE70398401C03A90870F1E704B080BDE0
:1046100080B58EB00C900B910A920B98C068002167
:10462000FBF7ACFF00283DD0FFE70B9800690021A5
:10463000FBF7A4FF002835D0FFE70B984069002165
:10464000FBF79CFF00282DD0FFE70B9800680021A6
:10465000FBF794FF002825D0FFE70B984068002166
:10466000FBF78CFF00281DD0FFE70B988068002126
:10467000FBF784FF002815D0FFE70C980B99C86062
:104680000C980B9908610C980B9948610C980B9940
:1046900008600C980B9948600C980B9988600C98EE
:1046A0000D9085E00C980B9988600A980690C16877
:1046B00002910B9908918A68019200694968FBF799
:1046C00090FD0199024602980392FBF78AFD039937
:1046D000FBF72EFD08990246069804924069096886
:1046E000FBF77FFD0499FBF723FD08990246069826
:1046F000059240680969FBF774FD01460598FBF7D0
:1047000068FD08990246069807928068C968FBF719
:1047100068FD01460798FBF75CFD089948610B9915
:10472000486808600B99886848600B990869C860F8
:104730000B994869086109A900200880FFE709A8CA
:104740000088022830DCFFE70B9809A90988890056
:104750004018C06802F044FA01280AD0FFE70B981D
:1047600009A909888900405802F03AFA012815D1B0
:10477000FFE70C980B99C8600C980B9908610C988E
:104780000B9948610C980B9908600C980B9948603C
:104790000C980B9988600C980D9009E0FFE7099838
:1047A000401C09A90880CAE70B9840690D90FFE7F3
:1047B0000D980EB080BD000010B582B001A9087040
:1047C0006048007800280ED1FFE701A800785E4914
:1047D0004978884207D1FFE75A49012008700198BB
:1047E0005D490870ACE05748007801280ED1FFE71A
:1047F00001A8007854490978884207D1FFE7514958
:104800000220087001985449487098E04D4800789B
:1048100002280CD1FFE701A80078F02807DCFFE7A9
:1048200048490320087001984B49887086E0454844
:104830000078032812D1FFE701A8007863280DDC77
:10484000FFE740490420087001984349C870019867
:104850003E4908703F49002008706EE039480078F2
:1048600004281AD1FFE739480078012815DBFFE753
:1048700036480178491E01700199364C2278531C44
:104880002370354BD21811710078002804D1FFE74E
:104890002C4905200870FFE74EE02A4800780528DB
:1048A0000CD1FFE72749062008700198294B197899
:1048B0004A1C1A70284A891808713CE0214800787F
:1048C000062813D1FFE701A80078F3490978884248
:1048D0000CD1FFE71B490720087001981D4B197880
:1048E0004A1C1A701C4A8918087123E01548007880
:1048F000072816D1FFE701A80078E74949788842E0
:104900000FD1FFE70F4900200870019A11490B7879
:1049100011481B181A710978491DC9B200F01EF818
:1049200007E008490020087009490868401C086031
:10493000FFE7FFE7FFE7FFE7FFE7FFE7FFE7FFE747
:1049400002B010BD9C062020070020209B062020DE
:10495000582A20209A0620207429202080B590B063
:104960000F900EA801700DA9002008700CA9087006
:10497000FFE70CA800780EA90978C91E88420EDA54
:10498000FFE70F980CA90978415C0D9848400DA9E4
:104990000870FFE70C98401C0CA90870E9E70DA807
:1049A00000780F990EAA12788918C91E09788842D2
:1049B00001D0FFE76CE10F980078B649497888424A
:1049C00007D1FFE70F984078B2490978884201D0B3
:1049D000FFE75DE10F980EA909784018801E007866
:1049E000AD49097888420BD1FFE70F980EA90978E5
:1049F0004018401E0078A8494978884201D0FFE756
:104A000046E10F98807809284ED1FFE70F99087981
:104A1000000249794018A3490B9108800F9A9079B8
:104A20000002D279801848800F9A107A0002527AD8
:104A3000801888800F9A907A0002D27A8018C880F5
:104A40000F9A107B0002527B801808810F9A907B8E
:104A50000002D27B801848810F9A107C0002527CA1
:104A6000801888810F9A907C0002D27C8018C881BF
:104A70000F9A107D0002527D801808820F9A907D57
:104A80000002D27D801848828749012008700F9962
:104A9000097E864A11700F99497E854A11708549B1
:104AA000C87100F095FEF3E00F9880780A287CD159
:104AB000FFE70F9800797A490A9108700F984079BA
:104AC00048700F9A90790002D279801848800120AE
:104AD0000871002048718871C87108724872887224
:104AE0000F98007900280AD1FFE76D48099001214D
:104AF00041714088FBF787FD0999C86052E00F9823
:104B0000007901280BD1FFE76548089001218171E8
:104B100040884042FBF76CFD0899C86041E00F985F
:104B2000007902280AD1FFE75D4807900121C17191
:104B30004088FBF768FD0799C86031E00F9800795D
:104B400003280BD1FFE756480690012101724088E7
:104B50004042FBF74DFD0699C86020E00F980079B0
:104B600004280AD1FFE74E48059001214172408890
:104B7000FBF749FD0599C86010E00F9800790528FA
:104B80000BD1FFE7464804900121817240884042E2
:104B9000FBF72EFD0499C860FFE7FFE7FFE7FFE79B
:104BA000FFE7FFE700F014FE71E00F9880780F2810
:104BB0006CD1FFE70F99087900024979401837490D
:104BC000039108800F980A1D0621FCF73BF8039A11
:104BD0000F9808320A21FCF735F8039A0F980C3227
:104BE0000E21FCF72FF803980F99897C01740F9917
:104BF000C97C41740F9A117D0906537D1B04C918A5
:104C0000937D1B02C918D27D89188163007C02281C
:104C100004D0FFE721490120887434E01F48019047
:104C2000416801220292D30700935940C162816812
:104C30000163C1684163026A11465940C06A05F0C8
:104C4000CBFA009B01460198C162026A11465940A5
:104C5000006B05F0C1FA009B014601980163426AAE
:104C600011465940406B05F0B7FA0146019841637F
:104C7000806B0521FBF73FFD0199024602988A638C
:104C800028228854FFE700F0A3FDFFE7FFE7FFE7D6
:104C900010B080BD0700202005002020C404202083
:104CA0005C2A202086062020D02A2020680620208A
:104CB00034332020AA062020F0B58BB000F07AF91A
:104CC000002801D0FFE765E03348008800281FD1A5
:104CD000FFE731490888401C088032490846D03037
:104CE0000A46DC32546895680E6D4F6DDC228B5895
:104CF000D02289580A91826841680020059004906A
:104D00000A98039702960195009400F0D7FA41E0C3
:104D100021480088012818D1FFE71F490888401C56
:104D2000088020492D20C00008180B46C0335A685F
:104D30009C68DD68C023CB580169C0680295019466
:104D40000092002200F030F823E0144890214058EF
:104D500013490791FBF745FA079909901148089004
:104D6000172212018058FBF73CFA089A014609986D
:104D7000D423D45855239B00D5582923DB00D3587E
:104D8000926D0195009400F0C9FB03490020088052
:104D9000FFE7FFE70BB0F0BD9E062020C0062020F5
:104DA00035FA8E3C782D202070B58EB0149C139C63
:104DB000129C0D900C910B920A9309A9002005906A
:104DC000087008AE0096307007A904910870764A02
:104DD00013783478611C3170744903910B55527803
:104DE00033785C1C3470CA5433785A1C32701722E2
:104DF000CA543278531C3370885432780DA8FDF7AA
:104E000083FB03990898001D307032780CA8FDF7D9
:104E10007BFB03990898001D307032780BA8FDF7D2
:104E200073FB0898001D30700A9842490191FBF706
:104E3000D8F9FBF703FC0199039A034606A80290F0
:104E40000380407833785C1C3470D05406983378F3
:104E50005C1C3470D0541298FBF7C3F9FBF7EEFBDF
:104E60000199039A034602980380407833785C1CCA
:104E70003470D054069833785C1C3470D054139836
:104E8000FBF7AFF9FBF7DAFB0199039A03460298A7
:104E90000380407833785C1C3470D05406983378A3
:104EA0005C1C3470D0541498FBF79BF9FBF7C6FBDD
:104EB000029A039B0499044605981480527834782A
:104EC000651C35701A55069A3478651C35701A556C
:104ED000089A121FDA700870FFE707A8007808A97F
:104EE000097888420EDAFFE707A801782F48415C6D
:104EF0000998484009A90870FFE70798401C07A9CE
:104F00000870EAE7099A08A90B78581C0870274826
:104F1000C254274A13780C78651C0D7003555278DB
:104F20000B785C1C0C70C254097801F033FA0EB097
:104F300070BDC04600401C4610B584B003A908707F
:104F400002A90020087001A90870174A1478174BAD
:104F50001C7052785A70F0229A700122DA70039A0B
:104F60001A710870FFE701A8007804280EDCFFE73B
:104F700001A801780D48415C0298484002A90870D8
:104F8000FFE70198401C01A90870ECE70299074867
:104F9000417107490A7882714978C171082101F08D
:104FA000F9F904B010BDC04607002020D829202000
:104FB0000500202080B582B0BD48007801280AD1C4
:104FC000FFE70A20FFF7B8FFB9490020087001A9E0
:104FD0000120087068E1B648407801280AD1FFE74F
:104FE0000B20FFF7A9FFB2490020487001A901205A
:104FF000087059E1AE48807801280AD1FFE70C20FB
:10500000FFF79AFFAA490020887001A901200870C3
:105010004AE1A748C07801280AD1FFE70D20FFF731
:105020008BFFA3490020C87001A9012008703BE153
:105030009F48007901280AD1FFE70E20FFF77CFF87
:105040009B490020087101A9012008702CE19848B3
:10505000407901280AD1FFE70F20FFF76DFF94493F
:105060000020487101A9012008701DE19048807955
:1050700001280AD1FFE71020FFF75EFF8C490020CE
:10508000887101A9012008700EE18948C0790128C2
:105090000AD1FFE7F120FFF74FFF85490020C871D3
:1050A00001A901200870FFE08148007A01280AD197
:1050B000FFE7F220FFF740FF7D490020087201A9B9
:1050C00001200870F0E07A48407A01280BD1FFE710
:1050D000F320FFF731FF76490020487201208872E3
:1050E00001A90870E0E07248807A012830D1FFE71A
:1050F00071480088002807D1FFE7F420FFF71CFF64
:105100006D49012008801FE06B480088012804D108
:10511000FFE769490220088015E0674800880228F7
:1051200004D1FFE76449032008800BE0624800884F
:10513000032806D1FFE76049002008805C49887297
:10514000FFE7FFE7FFE7FFE701A901200870ABE0F9
:105150005748C07A01280AD1FFE7F520FFF7ECFE97
:1051600053490020C87201A9012008709CE05048F2
:10517000007B01280AD1FFE71620FFF7DDFE4C492E
:105180000020087301A9012008708DE04848407B89
:1051900001280AD1FFE7F620FFF7CEFE44490020A0
:1051A000487301A9012008707EE04148807B0128F6
:1051B0000AD1FFE7F720FFF7BFFE3D4900208873C3
:1051C00001A9012008706FE03A480078012807D152
:1051D000FFE738490020087001A90120087063E04A
:1051E00034484078012807D1FFE732490020487051
:1051F00001A90120087057E02E488078012807D1C6
:10520000FFE72C490020887001A9012008704BE0BD
:105210002848C078012807D1FFE726490020C87038
:1052200001A9012008703FE022480079012807D138
:10523000FFE720490020087101A90120087033E030
:105240001C484079012807D1FFE71A49002048711E
:1052500001A90120087027E016488079012807D1AC
:10526000FFE714490020887101A9012008701BE0A4
:105270001048C079012807D1FFE70E490020C87106
:1052800001A9012008700FE00A48007A012807D11F
:10529000FFE708490020087201A90120087003E017
:1052A00001A900200870FFE701A8007802B080BDC6
:1052B000AA062020A0062020BE06202070B592B0AD
:1052C0000C4605461B981A99199E189E179E169E05
:1052D000119510940F920E930DAA11700CA90870DD
:1052E0000BAD019500200690287008A90870D14ADE
:1052F00013782C78611C2970CF4905910B55527891
:105300002B785C1C2C70CA542B785A1C2A700122F2
:10531000CA542A78531C2B70885411987D490391E4
:10532000FAF75FFFFBF78AF90399059A03460AA883
:105330000490038040782B785C1C2C70D0540A9821
:105340002B785C1C2C70D0541098FAF74AFFFBF7AE
:1053500075F9059902460498028040782A78531C12
:105360002B7088540A982A78531C2B7088540F98F5
:105370006949FAF736FFFBF761F90399059A034685
:105380000498038040782B785C1C2C70D0540A98C9
:105390002B785C1C2C70D0540E98FAF722FFFBF788
:1053A0004DF90399059A099009A80290C3782C78C1
:1053B000661C2E70135583782C78661C2E7013553E
:1053C00040782B785C1C2C70D05409982B785C1C8E
:1053D0002C70D0541698FAF704FFFBF72FF90399B5
:1053E000059A034602980993C3782C78661C2E70A0
:1053F000135583782C78661C2E70135540782B78C3
:105400005C1C2C70D05409982B785C1C2C70D054E8
:105410001798FAF7E6FEFBF711F90399059A034688
:1054200002980993C3782C78661C2E7013558378E4
:105430002C78661C2E70135540782B785C1C2C70D1
:10544000D05409982B785C1C2C70D0541898FAF71B
:10545000C8FEFBF7F3F80399059A03460498038006
:1054600040782B785C1C2C70D0540A982B785C1CEC
:105470002C70D0541998FAF7B4FEFBF7DFF80499B2
:10548000059A034606980B8049782B785C1C2C7093
:10549000D1540A992B785C1C2C70D1540D992B781F
:1054A0005C1C2C70D1540C992B785C1C2C70D15442
:1054B0000B99091FD17007A90870FFE707A80078AA
:1054C0000BA9097888420EDAFFE707A801785A4845
:1054D000415C0898484008A90870FFE70798401CFD
:1054E00007A90870EAE7089A0BA90B78581C0870FE
:1054F0005148C254514A13780C78651C0D700355FD
:1055000052780B785C1C0C70C254097800F042FF92
:1055100012B070BD0000C84200002041B0B58CB090
:10552000119C109C0B900A910992089307A90020E6
:105530000490087006AC0194207005A903910870CE
:105540003C4A13782578691C21703B4902914B55E0
:10555000527823785D1C2570CA5423785A1C227017
:105560000922CA542278531C2370885422780BA82D
:10557000FCF7CAFF02990698001D207022780AA83D
:10558000FCF7C2FF02990698001D2070227809A836
:10559000FCF7BAFF02990698001D2070227808A82F
:1055A000FCF7B2FF02990698001D2070227810A81F
:1055B000FCF7AAFF02990698001D2070227811A816
:1055C000FCF7A2FF029B03990498069A121D227011
:1055D000069A121FDA700870FFE705A8007806A97E
:1055E000097888420EDAFFE705A801781248415C85
:1055F0000798484007A90870FFE70598401C05A9CF
:105600000870EAE7079A06A90B78581C08700A4840
:10561000C2540A4A13780C78651C0D7003555278F1
:105620000B785C1C0C70C254097800F0B3FE0CB00F
:10563000B0BDC04607002020D8292020050020202A
:1056400002490868401C08607047C0466C2A202048
:1056500080B584B0012001900105BC480290FBF7A1
:10566000ABFC0199029809040391FBF7A5FC6420A7
:1056700004F0D5FE02980399FBF7CEFD02200CF052
:10568000BDFEFCF701FDFEF7D5FE04B080BDC046AF
:1056900080B584B003AA0192107002A8017002982C
:1056A000B030C0B200F010F8019800780009103056
:1056B00000F00AF80398012108430F21084000F088
:1056C00003F804B080BD000082B001A908706946EB
:1056D0000020087001225204354B1A600870FFE761
:1056E00068460078072822DCFFE7012040042F49A4
:1056F000086001A800780006002805D5FFE7012012
:10570000C0032949086004E00120C003284908605B
:10571000FFE701204004274908600198400001A9E3
:105720000870FFE70098401C69460870D8E7012020
:1057300040041D49086002B07047C04682B001A90C
:10574000087069460020087001225204164B1A6046
:105750000870FFE768460078072822DCFFE7012091
:1057600040041249086001A800780006002805D509
:10577000FFE70120C0030C49086004E00120C003DA
:105780000B490860FFE7012040040A4908600198BE
:10579000400001A90870FFE70098401C69460870A6
:1057A000D8E702B07047C04690320A40A0120A40C3
:1057B000A0320A4090120A4080B582B001200190C8
:1057C00001F026FA019801F061FA02B080BD0000F4
:1057D00080B582B000200190009004487D218900AE
:1057E0003222034B04F0DCF902B080BDA804202073
:1057F000CDCC4C3E83B04748006841060020C043F2
:105800000090012001900029029001D4009802909C
:1058100001990298404A507140484056002817D1DB
:10582000FFE73D4805214056012805D1FFE73A49E9
:10583000486B401C486304E03749486B401E48638E
:10584000FFE7354905200A56C86A8018C86216E085
:10585000314805214056012805D1FFE72E49486B04
:10586000401E486304E02C49486B401C4863FFE736
:10587000294905200A56C86A801AC862FFE703B0A2
:105880007047C04683B0234800680106002000909E
:10589000C043012201920029029001D40198029094
:1058A000009902981C4A10711C484056002817D1D4
:1058B000FFE7194804214056012805D1FFE71649A2
:1058C000086B401C086304E01349086B401E086322
:1058D000FFE7114904200A56886A8018886216E09A
:1058E0000D4804214056012805D1FFE70A49086BFD
:1058F000401E086304E00849086B401C0863FFE78A
:10590000054904200A56886A801A8862FFE703B0B6
:105910007047C04680330A400C00202054062020E7
:1059200080B582B0014601A801700078C007002848
:1059300005D0FFE705480221FBF72AFB04E00348F6
:105940000221FBF755FCFFE702B080BD00200A40B2
:1059500080B584B001910246019803A90A800290A3
:10596000029809888900012200F066FF04B080BD1A
:1059700010B588B001910446019807A902910C80E6
:1059800006900592049306980988890001220392E3
:1059900000F052FF0299039A059809888900091DB1
:1059A00000F04AFF0299039A049809888900083197
:1059B00000F042FF08B010BD80B582B001900198A0
:1059C00080680121890488420AD1FFE7019948686B
:1059D0008968FBF7EBFB414248410199487009E0B7
:1059E000019948688968FBF7E1FB411E88410199EC
:1059F0004870FFE701984078002838D1FFE7019808
:105A0000807800280CD0FFE707F0CCF80199C86037
:105A100007F0C8F80199486101990020886125E0E4
:105A200007F0C0F80199C968401A4249884201D379
:105A3000FFE71AE007F0B6F801994969401AFB2818
:105A400012D3FFE707F0AEF80199486101990320EE
:105A5000087001980078032805D1FFE7019988694B
:105A6000401C8861FFE7FFE7FFE7FFE742E001989E
:105A7000807800283DD1FFE707F094F8019908618C
:105A800001990869C968401A2A4988420DD3FFE77D
:105A900001980422027001990020C8617D20C00095
:105AA0003F21090604F080FA22E001990869C968DB
:105AB000401A214988420ED3FFE70199022008705D
:105AC00001990020C8617D20C0003F210906012204
:105AD00004F06AFA0BE0019801220270019900209B
